:100000000C945D000C9485000C9485000C94850084
:100010000C9485000C9485000C9485000C9485004C
:100020000C9485000C9485000C9485000C9485003C
:100030000C9485000C9485000C9485000C9485002C
:100040000C949C040C9485000C946A040C94440455
:100050000C9485000C9485000C9485000C9485000C
:100060000C9485000C9485000000000024002700FB
:100070002A0000000000250028002B0004040404CE
:100080000404040402020202020203030303030342
:10009000010204081020408001020408102001021F
:1000A00004081020000000080002010000030407FB
:1000B0000000000000000000E60411241FBECFEF86
:1000C000D8E0DEBFCDBF11E0A0E0B1E0E8E0F8E1AC
:1000D00002C005900D92A239B107D9F722E0A2E93A
:1000E000B1E001C01D92A434B207E1F710E0CDE504
:1000F000D0E004C02197FE010E94000ACC35D10750
:10010000C9F70E9425050C94020C0C940000CF92B4
:10011000DF92EF92FF920F931F93CF93DF936C01C7
:100120007A018B01C0E0D0E0CE15DF0581F0D80167
:100130006D918D01D601ED91FC910190F081E02D42
:10014000C6010995892B11F02196EECF7E01C701DA
:10015000DF91CF911F910F91FF90EF90DF90CF90A3
:100160000895FC0144815581608171818DE991E0A0
:100170000E94870042E050E066E471E08DE991E082
:100180000C948700089580E090E00895FC01538D61
:10019000448D252F30E0842F90E0821B930B541761
:1001A00010F0CF96089501970895FC01918D828DEE
:1001B000981761F0828DDF01A80FB11D5D968C91BB
:1001C000928D9F5F9F73928F90E008958FEF9FEFC6
:1001D0000895FC01918D828D981731F0828DE80F82
:1001E000F11D858D90E008958FEF9FEF0895FC013C
:1001F000918D228D892F90E0805C9F4F821B910909
:100200008F73992708958DE991E00E94F70021E00E
:10021000892B09F420E0822F0895FC01848DDF01F1
:10022000A80FB11DA35ABF4F2C91848D90E0019669
:100230008F739927848FA689B7892C93A089B18958
:100240008C91837080648C93938D848D981306C0F9
:100250000288F389E02D80818F7D80830895EF925D
:10026000FF920F931F93CF93DF93EC0181E0888F70
:100270009B8D8C8D981305C0E889F989808185FD57
:1002800026C0F62E0B8D10E00F5F1F4F0F73112746
:10029000E02E8C8DE8120CC00FB607FCFACFE8896F
:1002A000F989808185FFF5CFCE010E940D01F1CF44
:1002B0008B8DFE01E80FF11DE35AFF4FF0829FB7CF
:1002C000F8940B8FEA89FB89808180620AC09FB70E
:1002D000F894EE89FF896083E889F98980818370C9
:1002E000806480839FBF81E090E0DF91CF911F9178
:1002F0000F91FF90EF900895CF93DF93EC01888DDD
:100300008823C9F0EA89FB89808185FD05C0A88919
:10031000B9898C9186FD0FC00FB607FCF5CF80819F
:1003200085FFF2CFA889B9898C9185FFEDCFCE01E9
:100330000E940D01E7CFDF91CF91089580E090E01A
:10034000892B29F00E94030181110C94000008956B
:1003500090E0FC01EC55FF4F2491FC01E057FF4F6A
:100360003491FC01E458FF4FE491EE2309F43CC0C2
:10037000222339F1233091F038F42130A9F02230D2
:1003800001F584B58F7D12C0273091F02830A1F09F
:100390002430B9F4809180008F7D03C0809180006B
:1003A0008F77809380000DC084B58F7784BD09C09E
:1003B0008091B0008F7703C08091B0008F7D8093D3
:1003C000B000F0E0EE0FFF1FEE58FF4FA591B49183
:1003D0009FB7F894611104C08C913095382302C006
:1003E000EC913E2B3C939FBF0895CF93DF9390E019
:1003F000FC01E057FF4F2491FC01E458FF4F84912A
:10040000882361F190E0880F991FFC01E859FF4FA4
:10041000C591D491FC01EE58FF4FA591B4916111A3
:1004200009C09FB7F8948881209582238883EC9136
:100430002E230BC0623061F49FB7F8948881322F6D
:10044000309583238883EC912E2B2C939FBF06C07D
:100450008FB7F894E8812E2B28838FBFDF91CF913F
:1004600008958E3008F08E508770806480937C00F1
:1004700080917A00806480937A0080917A0086FD72
:10048000FCCF809178002091790090E0922B089524
:100490003FB7F8948091970190919801A0919901AC
:1004A000B0919A0126B5A89B05C02F3F19F001967F
:1004B000A11DB11D3FBFBA2FA92F982F8827820FEA
:1004C000911DA11DB11DBC01CD0142E0660F771F3A
:1004D000881F991F4A95D1F708954F925F926F92A6
:1004E0007F928F929F92AF92BF92CF92DF92EF92C4
:1004F000FF920F931F93CF93DF9300D000D0CDB71F
:10050000DEB74A015B0109831A832B833C83892B65
:1005100011F461E001C060E087E00E94A8016091F1
:100520009B0170919C01072E000C880B990B0E9477
:10053000AF076B017C01A50194010E940E082B01FD
:100540003C0120E030E04AE754E469817A818B8104
:100550009C810E940E08A50194010E945309A701E5
:1005600096010E94530920E030E040E05FE30E94E2
:100570000E0820E030E048EC52E40E940E080E9491
:10058000C5097B01660F771F660F771F6B0185E03A
:10059000C81AD108A12CB12CB5010B2C000C880B6A
:1005A000990B0E94AF079B01AC01C301B2010E94ED
:1005B000F4091816D4F461E086E00E94A80182E0F4
:1005C000E816F10418F0C6010197F1F760E086E043
:1005D0000E94A80182E0E816F10418F0C601019714
:1005E000F1F78FEFA81AB80AD7CF0F900F900F909E
:1005F0000F90DF91CF911F910F91FF90EF90DF90BF
:10060000CF90BF90AF909F908F907F906F905F90B2
:100610004F900895FC01808191810C949E0ACF93A4
:10062000DF93EC0188819981009711F00E949E0A66
:10063000198218821D821C821B821A82DF91CF913F
:1006400008950E94ED0B0F931F93CF93DF93EC015E
:1006500088819981009729F02A813B8126173707E5
:1006600088F48B016F5F7F4F0E94270B009761F02A
:10067000998388831B830A832C813D81232B11F46A
:10068000FC01108281E001C080E0DF91CF911F91D9
:100690000F9108950F931F93CF93DF93EC010C817B
:1006A0001D810F5F1F4FB8010E942303882369F04B
:1006B000288139818C819D816AE771E0820F931FC7
:1006C0000E94FB0B1D830C8303C0CE010E940F030D
:1006D000CE01DF91CF911F910F910895EF92FF927C
:1006E0000F931F93CF93DF93EC01FB0104811581DE
:1006F000E080F180E114F104C9F001151105C9F0A1
:100700008C819D81080F191FB801CE010E9423031F
:10071000882361F0288139818C819D81B701820F06
:10072000931F0E94FB0B1D830C8303C0CE010E940C
:100730000F03CE01DF91CF911F910F91FF90EF90AA
:100740000895EF92FF920F931F93CF93DF93EC01E5
:100750007B018A01BA010E942303811104C0CE01EA
:100760000E940F0307C01D830C83B7018881998104
:100770000E94FB0BCE01DF91CF911F910F91FF9053
:10078000EF900895EF92FF920F931F93CF93DF9313
:10079000CDB7DEB762970FB6F894DEBF0FBECDBF00
:1007A0008C01CB01F8011182108213821282158212
:1007B00014824AE09E012F5F3F4F7901B9010E94E8
:1007C0007807F70101900020E9F73197AF014E1942
:1007D0005F09B701C8010E94A10362960FB6F894A1
:1007E000DEBF0FBECDBFDF91CF911F910F91FF9064
:1007F000EF900895CF93DF93EC01FB0186179707E5
:1008000061F0608171816115710529F04481558124
:100810000E94A10302C00E940F03CE01DF91CF917D
:100820000895FC01118210821382128215821482B3
:100830006115710551F0FB0101900020E9F7319736
:10084000AF01461B570B0C94A1030895CF93DF9380
:1008500000D000D000D0CDB7DEB769E471E0CE01A2
:1008600001960E941104CE0101960E94B100CE01B2
:1008700001960E940A0326960FB6F894DEBF0FBEBB
:10088000CDBFDF91CF9108951F920F920FB60F92B7
:1008900011242F933F934F935F936F937F938F9385
:1008A0009F93AF93BF93EF93FF938DE991E00E94E5
:1008B0000D01FF91EF91BF91AF919F918F917F912A
:1008C0006F915F914F913F912F910F900FBE0F90BD
:1008D0001F9018951F920F920FB60F9211242F930D
:1008E0008F939F93EF93FF93E091AD01F091AE0151
:1008F0008081E091B301F091B40182FD12C090813A
:100900008091B6018F5F8F732091B701821751F0EC
:10091000E091B601F0E0E356FE4F958F8093B6016B
:1009200001C08081FF91EF919F918F912F910F9046
:100930000FBE0F901F9018951F920F920FB60F9237
:1009400011242F933F938F939F93AF93BF938091E5
:10095000930190919401A0919501B09196013091ED
:10096000920123E0230F2D3720F40196A11DB11D24
:1009700005C026E8230F0296A11DB11D2093920108
:100980008093930190939401A0939501B093960165
:100990008091970190919801A0919901B0919A014D
:1009A0000196A11DB11D8093970190939801A0938A
:1009B0009901B0939A01BF91AF919F918F913F910F
:1009C0002F910F900FBE0F901F901895EDE9F1E059
:1009D0001382128288EE93E0A0E0B0E084839583D6
:1009E000A683B7838AE091E09183808385EC90E0D1
:1009F0009587848784EC90E09787868780EC90E0E9
:100A0000918B808B81EC90E0938B828B82EC90E0D9
:100A1000958B848B86EC90E0978B868B118E128E53
:100A2000138E148E8CED95E090933F0280933E02DE
:100A300080E89CE090933D0280933C0284E190E04A
:100A400090933B0280933A020895CF93DF93CDB702
:100A5000DEB768970FB6F894DEBF0FBECDBF7894AF
:100A600084B5826084BD84B5816084BD85B58260B3
:100A700085BD85B5816085BD80916E008160809364
:100A80006E001092810080918100826080938100CD
:100A900080918100816080938100809180008160DD
:100AA000809380008091B10084608093B100809138
:100AB000B00081608093B00080917A008460809360
:100AC0007A0080917A00826080937A0080917A0027
:100AD000816080937A0080917A00806880937A00A8
:100AE0001092C100E091AD01F091AE0182E08083EF
:100AF000E091A901F091AA011082E091AB01F0917F
:100B0000AC0180E180831092B501E091B101F091D8
:100B1000B20186E08083E091AF01F091B001808165
:100B200080618083E091AF01F091B00180818860A5
:100B30008083E091AF01F091B00180818068808373
:100B4000E091AF01F091B00180818F7D808360E002
:100B50008EE00E94F50160E08FE00E94F50161E007
:100B600086E00E94F50161E087E00E94F50161E006
:100B700084E00E94F50161E085E00E94F50160E0FB
:100B800084E00E94A80160E085E00E94A80188EC52
:100B900090E090939C0180939B01CC24CA9453E0F5
:100BA000D52EE12CF12C8EE00E94310228E631E0B6
:100BB000DC010E94F909A70196010E94CC08293C9A
:100BC00031059CF4213A31053CF52135310534F4E9
:100BD00029323105F4F437FF53C027C029373105D6
:100BE0000CF451C084E090E050C0293181E0380716
:100BF00034F4213F31059CF486E090E046C0213476
:100C000081E038077CF0293631407CF489E090E0BF
:100C10003CC082E090E039C085E090E036C087E0DB
:100C200090E033C088E090E030C00E9426048FE05E
:100C30000E94310228E631E0DC010E94F909A70197
:100C400096010E94CC08293D31056CF4213931050B
:100C50000CF040C137FD2FC0293431050CF437C1E9
:100C600082E090E039C1213281E0380734F0293642
:100C700031400CF585E090E02FC184E090E02CC17C
:100C800081E090E002C083E090E00197880F991F17
:100C9000FC01EC5CFE4F2081318130933F022093B8
:100CA0003E02FC01EE5DFE4F8081918190933D02FA
:100CB00080933C02BCCF0E94260460913E0270915A
:100CC0003F02CE0107960E94C20360913A027091E2
:100CD0003B02CE010D960E94C20360E771E0CE0197
:100CE00043960E941104BE01635F7F4FCE0143967D
:100CF0000E946E030E944A03BE01695F7F4F0E94FB
:100D00006E031A8219821C821B821E821D82BC0104
:100D1000CE0101960E94FA03CE0101960E94B10015
:100D2000CE0101960E940A03CE0143960E940A0357
:100D3000CE010D960E940A03CE0107960E940A0377
:100D400060913E0270913F02072E000C880B990BB8
:100D50000E94AF074B015C0160913A0270913B0227
:100D6000072E000C880B990B0E94AF07AB01BC014A
:100D70009501840180E090E00E946D026CE771E0D3
:100D8000CE0101960E941104CE0101960E94B1008D
:100D9000CE0101960E940A0361E086E00E94A8014C
:100DA0000BE31CE9C8010197F1F761E086E00E94BE
:100DB000A801C8010197F1F70E9448024B015C01AC
:100DC0004CE2442E55245394612C712C0E9448020D
:100DD000DC01CB0188199909AA09BB09883E934017
:100DE000A105B10598F321E0421A51086108710884
:100DF00088EE880E83E0981EA11CB11C411451049A
:100E00006104710419F760913C0270913D02CE01BA
:100E100007960E94C20360913A0270913B02CE0194
:100E20000D960E94C20365E871E0CE0143960E94D0
:100E30001104BE01635F7F4FCE0143960E946E0393
:100E40000E944A03BE01695F7F4F0E946E031A82AF
:100E500019821C821B821E821D82BC01CE0101965A
:100E60000E94FA03CE0101960E94B100CE010196C4
:100E70000E940A03CE0143960E940A03CE010D96FA
:100E80000E940A03CE0107960E940A0360913C0269
:100E900070913D02072E000C880B990B0E94AF0742
:100EA0004B015C0160913A0270913B02072E000CED
:100EB000880B990B0E94AF07AB01BC01950184011F
:100EC00081E090E00E946D020E949E016CCE81E064
:100ED00090E002C083E090E0880F991FFC01EA5E79
:100EE000FE4F8081918190933B0280933A02E5CE40
:100EF000BB274A3031F4992322F4BDE290958195C5
:100F00009F4F0C948407BB27FB015527AA27880F06
:100F1000991FAA1FA41710F0A41B83955051B9F76D
:100F2000A05DAA3308F0A95DA193009779F7B111EC
:100F3000B1931192CB010C949D07DC01FC01672F4A
:100F400071917723E1F7329704C07C916D937083A0
:100F50006291AE17BF07C8F30895E89409C097FBE4
:100F60003EF490958095709561957F4F8F4F9F4F80
:100F70009923A9F0F92F96E9BB279395F6958795C4
:100F800077956795B795F111F8CFFAF4BB0F11F487
:100F900060FF1BC06F5F7F4F8F4F9F4F16C088232E
:100FA00011F096E911C0772321F09EE8872F762F64
:100FB00005C0662371F096E8862F70E060E02AF0A5
:100FC0009A95660F771F881FDAF7880F9695879591
:100FD00097F90895990F0008550FAA0BE0E8FEEF66
:100FE00016161706E807F907C0F012161306E407ED
:100FF000F50798F0621B730B840B950B39F40A26E6
:1010000061F0232B242B252B21F408950A2609F4C3
:10101000A140A6958FEF811D811D08950E94210892
:101020000C9492080E94840838F00E948B0820F0EB
:10103000952311F00C947B080C94810811240C94D6
:10104000C6080E94A30870F3959FC1F3950F50E066
:10105000551F629FF001729FBB27F00DB11D639F6A
:10106000AA27F00DB11DAA1F649F6627B00DA11D10
:10107000661F829F2227B00DA11D621F739FB00DB6
:10108000A11D621F839FA00D611D221F749F332726
:10109000A00D611D231F849F600D211D822F762FBF
:1010A0006A2F11249F5750409AF0F1F088234AF09C
:1010B000EE0FFF1FBB1F661F771F881F9150504008
:1010C000A9F79E3F510580F00C947B080C94C6084C
:1010D0005F3FE4F3983ED4F3869577956795B7958F
:1010E000F795E7959F5FC1F7FE2B880F911D9695A9
:1010F000879597F9089597F99F6780E870E060E019
:1011000008959FEF80EC089500240A9416161706A0
:1011100018060906089500240A94121613061406E8
:1011200005060895092E0394000C11F4882352F04B
:10113000BB0F40F4BF2B11F460FF04C06F5F7F4F03
:101140008F4F9F4F089557FD9058440F551F59F0EA
:101150005F3F71F04795880F97FB991F61F09F3FA4
:1011600079F087950895121613061406551FF2CFCD
:101170004695F1DF08C0161617061806991FF1CF1D
:1011800086957105610508940895E894BB27662744
:101190007727CB0197F90895052E97FB1EF400944D
:1011A0000E94E30857FD07D00E94220907FC03D0E4
:1011B0004EF40C94E30850954095309521953F4F9F
:1011C0004F4F5F4F089590958095709561957F4F33
:1011D0008F4F9F4F08952F923F924F925F926F9241
:1011E0007F928F929F92AF92BF92CF92DF92EF92B7
:1011F000FF920F931F93CF93DF93CDB7DEB7CA1B38
:10120000DB0B0FB6F894DEBF0FBECDBF09942A8862
:10121000398848885F846E847D848C849B84AA840A
:10122000B984C884DF80EE80FD800C811B81AA8197
:10123000B981CE0FD11D0FB6F894DEBF0FBECDBF62
:10124000ED010895A1E21A2EAA1BBB1BFD010DC0E2
:10125000AA1FBB1FEE1FFF1FA217B307E407F50766
:1012600020F0A21BB30BE40BF50B661F771F881F42
:10127000991F1A9469F760957095809590959B01D8
:10128000AC01BD01CF010895A29FB001B39FC00181
:10129000A39F700D811D1124911DB29F700D811DA2
:1012A0001124911D08950E9467090C9492080E94D0
:1012B0008B0858F00E94840840F029F45F3F29F021
:1012C0000C947B0851110C94C6080C9481080E9460
:1012D000A30868F39923B1F3552391F3951B550B9C
:1012E000BB27AA2762177307840738F09F5F5F4FF9
:1012F000220F331F441FAA1FA9F335D00E2E3AF038
:10130000E0E832D091505040E695001CCAF72BD04F
:10131000FE2F29D0660F771F881FBB1F26173707A0
:101320004807AB07B0E809F0BB0B802DBF01FF27D2
:1013300093585F4F3AF09E3F510578F00C947B082C
:101340000C94C6085F3FE4F3983ED4F386957795F6
:101350006795B795F7959F5FC9F7880F911D96958B
:10136000879597F90895E1E0660F771F881FBB1FE7
:10137000621773078407BA0720F0621B730B840B94
:10138000BA0BEE1F88F7E09508950E94AB0888F02D
:101390009F5798F0B92F9927B751B0F0E1F0660F39
:1013A000771F881F991F1AF0BA95C9F714C0B1307A
:1013B00091F00E94C508B1E008950C94C508672F0C
:1013C000782F8827B85F39F0B93FCCF386957795A9
:1013D0006795B395D9F73EF4909580957095619592
:1013E0007F4F8F4F9F4F08950E94EA0708F48FEFB9
:1013F00008950E944409B7FF0895821B930B089536
:10140000EE0FFF1F0590F491E02D09940F931F93A9
:10141000CF93DF938230910510F482E090E0E09169
:101420004202F091430220E030E0A0E0B0E03097CB
:1014300019F1408151810281138148175907C8F081
:101440008417950769F4109731F012960C93129750
:1014500013961C9327C0009342021093430222C0AC
:101460002115310519F04217530718F49A01BD01EF
:10147000EF01DF01F801DBCF21153105F9F0281B61
:10148000390B2430310580F48A819B816115710507
:1014900021F0FB019383828304C0909343028093E5
:1014A0004202FE01329644C0FE01E20FF31F819317
:1014B000919322503109398328833AC02091400208
:1014C00030914102232B41F420910201309103011C
:1014D000309341022093400220910001309101019C
:1014E0002115310541F42DB73EB7409104015091CB
:1014F0000501241B350BE0914002F0914102E217F7
:10150000F307A0F42E1B3F0B2817390778F0AC0126
:101510004E5F5F4F2417350748F04E0F5F1F509303
:101520004102409340028193919302C0E0E0F0E0D9
:10153000CF01DF91CF911F910F910895CF93DF934A
:10154000009709F481C0FC01329713821282A091A6
:101550004202B0914302109781F420813181820FC1
:10156000931F20914002309141022817390751F50D
:10157000F0934102E093400267C0ED0120E030E0CB
:10158000CE17DF0740F44A815B819E01411551056A
:10159000F1F0EA01F5CFD383C28340815181840FFA
:1015A000951FC817D90759F488819981840F951F11
:1015B0000296918380838A819B8193838283211504
:1015C000310529F4F0934302E09342023DC0E90162
:1015D000FB83EA8349915991C40FD51FEC17FD078E
:1015E00061F480819181840F951F0296E9019983AE
:1015F0008883828193819B838A83E0E0F0E0129666
:101600008D919C911397009719F0FD01DC01F7CFA4
:101610008D919C9111979D012E5F3F4F820F931FDB
:1016200020914002309141022817390769F4309720
:1016300029F4109243021092420202C013821282D5
:10164000B0934102A0934002DF91CF910895A0E0B2
:10165000B0E0EDE2FBE00C94EF08EC01009721F420
:10166000CB010E94060AB4C0FC01E60FF71F9C01E3
:1016700022503109E217F30708F4A8C0D9010D91EF
:101680001C91119706171707B0F00530110508F4E3
:101690009BC0C80104978617970708F495C00250AD
:1016A0001109061B170B019311936D937C93CF01C6
:1016B0000E949E0A89C05B01A01AB10A4C01800EEB
:1016C000911EA0914202B0914302612C712CE12C39
:1016D000F12C109709F446C08D919C911197A81593
:1016E000B905B1F56C0142E0C40ED11CCA14DB048B
:1016F00078F14C018A189B08640142E0C40ED11CA9
:101700001296BC9012971396AC91B5E0CB16D1040B
:1017100040F0B282A38391828082D9016D937C9341
:1017200009C00E5F1F4F800F911FF90191838083C5
:10173000EB2DFA2FE114F10431F0D7011396FC934D
:10174000EE93129741C0F0934302E09342023CC0F3
:101750006816790608F43C017D0112960D90BC9143
:10176000A02DB7CF80914002909141028816990632
:10177000E1F466167706C8F48091000190910101AA
:10178000009741F48DB79EB7409104015091050137
:10179000841B950BE817F907C8F4F0934102E09316
:1017A0004002F901718360830FC0CB010E94060AD9
:1017B0007C01009759F0A801BE010E94F20BCE01F6
:1017C0000E949E0AC70104C0CE0102C080E090E0E2
:1017D000CDB7DEB7EEE00C940B0981E090E0F89411
:1017E0000C94020CFB01DC0102C001900D924150EF
:1017F0005040D8F70895FB01DC0101900D920020C4
:08180000E1F70895F894FFCF11
:10180800000044028000000000002F018700C6008D
:101818007C01F700D500E900140028003C005000C6
:101828006400800C720B8C0AC4091A097A08EE0746
:1018380076070807DC0564050A05B0046A04240471
:10184800E803B60384030D0A00536F6D6574686975
:101858006E672077726F6E6720696E207365747487
:10186800696E67207669727475616C20736574009F
:10187800496E68616C6174696F6E3A00486F6C6498
:101888003A33303000457868616C6174696F6E3A3C
:0218980000004E
:107E0000112484B714BE81FFF0D085E080938100F7
:107E100082E08093C00088E18093C10086E0809377
:107E2000C20080E18093C4008EE0C9D0259A86E02C
:107E300020E33CEF91E0309385002093840096BBD3
:107E4000B09BFECF1D9AA8958150A9F7CC24DD24C4
:107E500088248394B5E0AB2EA1E19A2EF3E0BF2EE7
:107E6000A2D0813461F49FD0082FAFD0023811F036
:107E7000013811F484E001C083E08DD089C08234E0
:107E800011F484E103C0853419F485E0A6D080C0E4
:107E9000853579F488D0E82EFF2485D0082F10E0AE
:107EA000102F00270E291F29000F111F8ED06801E7
:107EB0006FC0863521F484E090D080E0DECF843638
:107EC00009F040C070D06FD0082F6DD080E0C81688
:107ED00080E7D80618F4F601B7BEE895C0E0D1E017
:107EE00062D089930C17E1F7F0E0CF16F0E7DF06D8
:107EF00018F0F601B7BEE89568D007B600FCFDCFD4
:107F0000A601A0E0B1E02C9130E011968C91119780
:107F100090E0982F8827822B932B1296FA010C0160
:107F200087BEE89511244E5F5F4FF1E0A038BF0790
:107F300051F7F601A7BEE89507B600FCFDCF97BE46
:107F4000E89526C08437B1F42ED02DD0F82E2BD052
:107F50003CD0F601EF2C8F010F5F1F4F84911BD097
:107F6000EA94F801C1F70894C11CD11CFA94CF0C13
:107F7000D11C0EC0853739F428D08EE10CD085E9AC
:107F80000AD08FE07ACF813511F488E018D01DD067
:107F900080E101D065CF982F8091C00085FFFCCF94
:107FA0009093C60008958091C00087FFFCCF809118
:107FB000C00084FD01C0A8958091C6000895E0E648
:107FC000F0E098E1908380830895EDDF803219F02E
:107FD00088E0F5DFFFCF84E1DECF1F93182FE3DFCA
:107FE0001150E9F7F2DF1F91089580E0E8DFEE27F6
:047FF000FF270994CA
:027FFE00040479
:0400000300007E007B
:00000001FF
